{
  "contractName": "Rebot",
  "abi": [
    {
      "inputs": [
        {
          "internalType": "string",
          "name": "_string",
          "type": "string"
        }
      ],
      "name": "str",
      "outputs": [
        {
          "internalType": "string",
          "name": "",
          "type": "string"
        }
      ],
      "stateMutability": "view",
      "type": "function",
      "constant": true
    },
    {
      "inputs": [
        {
          "internalType": "uint8",
          "name": "_nr",
          "type": "uint8"
        }
      ],
      "name": "nmb",
      "outputs": [],
      "stateMutability": "nonpayable",
      "type": "function"
    }
  ],
  "bytecode": "0x60806040526040518060400160405280600481526020017f6c65616e000000000000000000000000000000000000000000000000000000008152506000908051906020019061004f92919061007d565b5060018060006101000a81548160ff021916908360ff16021790555034801561007757600080fd5b5061011a565b828054600181600116156101000203166002900490600052602060002090601f016020900481019282601f106100be57805160ff19168380011785556100ec565b828001600101855582156100ec579182015b828111156100eb5782518255916020019190600101906100d0565b5b5090506100f991906100fd565b5090565b5b808211156101165760008160009055506001016100fe565b5090565b6101fd806101296000396000f3fe608060405234801561001057600080fd5b50600436106100355760003560e01c80629222901461003a57806309fca94f1461006b575b600080fd5b6100696004803603602081101561005057600080fd5b81019080803560ff16906020019092919050505061019f565b005b6101246004803603602081101561008157600080fd5b810190808035906020019064010000000081111561009e57600080fd5b8201836020820111156100b057600080fd5b803590602001918460018302840111640100000000831117156100d257600080fd5b91908080601f016020809104026020016040519081016040528093929190818152602001838380828437600081840152601f19601f8201169050808301925050505050505091929192905050506101bd565b6040518080602001828103825283818151815260200191508051906020019080838360005b83811015610164578082015181840152602081019050610149565b50505050905090810190601f1680156101915780820380516001836020036101000a031916815260200191505b509250505060405180910390f35b80600160006101000a81548160ff021916908360ff16021790555050565b606081905091905056fea26469706673582212204b891b9875a21db691a97d406a5b4b51d74e9635bb35470e3d3a0f4fab5e73c164736f6c63430007000033",
  "immutableReferences": {},
  "source": "// SPDX-License-Identifier: MIT\r\npragma solidity ^0.7.0;\r\n\r\ncontract Rebot {\r\n    string variabila = \"lean\";\r\n    uint8 nr = 1;\r\n\r\n    function str(string memory _string) public view returns(string memory) {\r\n        return _string;\r\n    }\r\n\r\n    function nmb(uint8 _nr) public {\r\n        nr = _nr;\r\n    }\r\n}",
  "sourcePath": "D:/Dev_Projects/rebot/contracts/Rebot.sol",
  "compiler": {
    "name": "solc",
    "version": "0.7.0+commit.9e61f92b.Emscripten.clang"
  },
  "schemaVersion": "3.3.3",
  "updatedAt": "2021-03-04T14:14:59.394Z",
  "networkType": "ethereum",
  "devdoc": {
    "kind": "dev",
    "methods": {},
    "version": 1
  },
  "userdoc": {
    "kind": "user",
    "methods": {},
    "version": 1
  }
}